:107000000C9434380C9451380C9451380C945138F9
:107010000C9451380C9451380C9451380C945138CC
:107020000C9451380C9451380C9451380C945138BC
:107030000C9451380C9451380C9451380C945138AC
:107040000C9451380C9451380C9451380C9451389C
:107050000C9451380C9451380C9451380C9451388C
:107060000C9451380C94513811241FBECFEFD8E046
:10707000DEBFCDBF11E0A0E0B1E0EAE5F4E702C079
:1070800005900D92A435B107D9F721E0A4E5B1E050
:1070900001C01D92A635B207E1F70E9438390C9461
:1070A0002B3A0C9400389B01AC0160E271EA87E056
:1070B00090E00E94AE39215031093093C5002093F1
:1070C000C40088E18093C100E2ECF0E0808186603A
:1070D000808308950F931F93CF93DF93EC018B016F
:1070E00060E071E00E94F339892B29F485B191E0C9
:1070F000892785B999C065E071E0CE010E94F33916
:10710000892BA9F407B600FCFDCFF999FECFD80171
:107110001296ED91FC91139714968D919C91159771
:1071200021E00C0120935700E89511247DC069E00F
:1071300071E0CE010E94F339892B61F407B600FC9F
:10714000FDCFF999FECFD8011296ED91FC911397DE
:1071500085E023C06DE071E0CE010E94F339892BF8
:1071600051F407B600FCFDCFF999FECF81E1809381
:107170005700E89559C061E171E0CE010E94F339F2
:10718000892B79F407B600FCFDCFF999FECFD80121
:107190001296ED91FC91139783E080935700E89548
:1071A00043C065E171E0CE010E94F339892B21F4DF
:1071B000E0E0F0E0099438C069E171E0CE010E949E
:1071C000F339892B61F428E088E190E00FB6F89458
:1071D000A895809360000FBE20936000FFCF6FE101
:1071E00071E0CE010E94F339892B19F0E9E2F1E058
:1071F00017C0F801828193810E94D039EC01D80137
:1072000014968D919C9115970E94D03999A388A3CB
:107210000BC08091C00085FFFCCF81918093C60098
:10722000B1E0E733FB07A9F7DF91CF911F910F91F1
:107230000895CF93C82F8A3019F48DE00E94193930
:107240008091C00085FFFCCFC093C60080E090E035
:10725000CF910895CF938091C00087FFFCCFC0915C
:10726000C6008C2F0E9419398C2F90E0CF91089581
:10727000CF93DF93CDB7DEB7C554D1090FB6F894DD
:10728000DEBF0FBECDBF209A2FEF84E39CE02150DC
:1072900080409040E1F700C0000060E875E280E0C7
:1072A00090E00E94533886E1EDE3F1E0DE01D096F4
:1072B00001900D928A95E1F7EFEFF4E32CE0E150B5
:1072C000F0402040E1F700C00000FE01F096CF0141
:1072D00046967F01E817F90709F12091C00025FFC4
:1072E000FCCF21912093C600F5CF67E371E0CE017A
:1072F00001960E94EE398E01065E1F4F009739F00D
:10730000F801819391938F01EE15FF0501F5BE0100
:10731000665E7F4FCE0101960E946A3880E090E061
:10732000893191054CF4E1E0F0E0EC0FFD1FE80F2E
:10733000F91F10820196F4CF8E010F5F1F4F0E943C
:107340002A398D3091F2F80181938F01F8CF67E3EC
:1073500071E080E090E00E94EE39D0CFA1E21A2ED9
:10736000AA1BBB1BFD010DC0AA1FBB1FEE1FFF1FE9
:10737000A217B307E407F50720F0A21BB30BE40B39
:10738000F50B661F771F881F991F1A9469F7609580
:107390007095809590959B01AC01BD01CF0108953A
:1073A000FC0188279927E89421912032E9F32930BC
:1073B00010F02E30C8F32B3241F02D3239F468949E
:1073C00004C00E94233A820F911D219120532A303C
:1073D000C0F31EF4909581959F4F089544E551E0C8
:1073E0000E94FC390895FB01DC018D910190801908
:1073F0000110D9F3990B0895FA01A191B08100977A
:1074000019F41097E1F0CD01DC01CD010D900020C1
:1074100011F4C00113C0FB012191222319F02015A2
:10742000D9F7F3CFFB012191201519F41E92119683
:1074300006C02223C1F70D900020A1F7D001FA0168
:10744000A193B08308957AE0979F902D879F802D18
:0A745000910D11240895F894FFCF68
:10745A0074657374006266700062707700627265A8
:10746A0000627065007273740072657365740077E8
:10747A00726974655F726567000D424C3A756E6B8E
:10748A006E6F776E0A0D00202C3B0D0A000A656E9E
:10749A00746572656420626F6F746C6F6164657283
:0474AA000A0D0000C7
:040000030000700089
:00000001FF
