:100000000C943A000C9457000C9457000C94570031
:100010000C9457000C9457000C9457000C94570004
:100020000C9457000C9457000C9457000C945700F4
:100030000C9457000C9457000C9457000C945700E4
:100040000C9457000C9457000C9457000C945700D4
:100050000C9457000C9457000C9457000C945700C4
:100060000C9457000C9457006364696E6F7073753D
:1000700078585B0011241FBECFEFD8E0DEBFCDBFA4
:1000800011E0A0E0B1E0E6E3FFE002C005900D92D0
:10009000A635B107D9F721E0A6E5B1E001C01D9270
:1000A000AE35B207E1F70E94C2000C9499070C9498
:1000B0000000CF93C82F8A3019F48DE00E945900B8
:1000C000E0ECF0E0908195FFFDCFC093C60080E0AA
:1000D00090E0CF910895CF93BC01E0ECF0E08081F7
:1000E0008823ECF7C091C6008C2F0E9459008C2FFA
:1000F00090E0CF9108959B01AC0160E271EA87E046
:1001000090E00E941C01215031093093C5002093DA
:10011000C40088E18093C100E2ECF0E08081866059
:100120008083089580E091E0909359018093580175
:1001300090935B0180935A010895CF93DF93EC0174
:100140006EE071E00E944301892B29F495B182E0B1
:10015000892785B913C063E171E0CE010E94430194
:10016000892B21F4E0E0F8E3099408C08CE191E0E8
:100170009F938F930E9473010F900F9080E0DF9107
:10018000CF910895CF93DF93CDB7DEB7AD970FB67C
:10019000F894DEBF0FBECDBF2FEF84E39CE021506B
:1001A00080409040E1F700C0000060E875E280E028
:1001B00090E00E947B000E949200219A84E391E0EB
:1001C0000E948701FE0131966F010F2EFEE4AF2ED3
:1001D000F1E0BF2EF02D7E01FEE2EF0EF11CDF926A
:1001E000CF92BF92AF920E94B40161E571E0C60167
:1001F0000E943E010F900F900F900F900097A9F072
:100200009B8F8A8F8E01045E1F4F07C0F801819378
:1002100091938F01EE15FF0541F061E571E080E0FB
:1002200090E00E943E01009789F7BE01665E7F4F15
:10023000C6010E949D00D3CFA1E21A2EAA1BBB1BB0
:10024000FD010DC0AA1FBB1FEE1FFF1FA217B307A2
:10025000E407F50720F0A21BB30BE40BF50B661FB8
:10026000771F881F991F1A9469F76095709580957C
:1002700090959B01AC01BD01CF01089546E551E089
:100280000E944C010895FB01DC018D9101908019C1
:100290000110D9F3990B0895FA01A191B08100974B
:1002A00019F41097E1F0CD01DC01CD010D90002093
:1002B00011F4C00113C0FB012191222319F0201574
:1002C000D9F7F3CFFB012191201519F41E92119655
:1002D00006C02223C1F70D900020A1F7D001FA013A
:1002E000A193B0830895A0E0B0E0E9E7F1E00C94B9
:1002F0007207FE01359661917191AF0180915A01AB
:1003000090915B010E94C801E2E00C948E070F936C
:100310001F93CF93DF93E0915A01F0915B0123810A
:1003200021FF1BC0EC0100E010E0899160915A01AF
:1003300070915B01DB011896ED91FC911997882370
:1003400031F00995892B89F30FEF1FEFEECF8AE08B
:100350000995892B11F4C80102C08FEF9FEFDF913F
:10036000CF911F910F910895A0E0B0E0EAEBF1E08A
:100370000C947207FE01359661917191AF018091E5
:100380005801909159010E941805E2E00C948E07E3
:10039000ACE0B0E0EEECF1E00C9462077C016B01A4
:1003A0008A01FC0117821682838181FFBDC1CE01C3
:1003B00001964C01F7019381F60193FD859193FF1E
:1003C00081916F01882309F4ABC1853239F493FD23
:1003D000859193FF81916F01853229F4B70190E0F7
:1003E0000E94B606E7CF512C312C20E02032A0F439
:1003F0008B3269F030F4803259F0833269F4206135
:100400002CC08D3239F0803339F4216026C022604F
:10041000246023C0286021C027FD27C030ED380F9D
:100420003A3078F426FF06C0FAE05F9E300D1124C2
:10043000532E13C08AE0389E300D1124332E2062D3
:100440000CC08E3221F426FD6BC1206406C08C36B0
:1004500011F4206802C0883641F4F60193FD8591BD
:1004600093FF81916F018111C1CF982F9F7D95548A
:10047000933028F40C5F1F4FFFE3F9830DC08336E0
:1004800031F0833771F0833509F05BC022C0F80189
:10049000808189830E5F1F4F44244394512C540163
:1004A00015C03801F2E06F0E711CF801A080B18018
:1004B00026FF03C0652D70E002C06FEF7FEFC5011E
:1004C0002C870E946D062C0183012C852F77222E0C
:1004D00017C03801F2E06F0E711CF801A080B180E6
:1004E00026FF03C0652D70E002C06FEF7FEFC501EE
:1004F0002C870E9462062C012C852068222E830105
:1005000023FC1BC0832D90E048165906B0F4B701B8
:1005100080E290E00E94B6063A94F4CFF50127FC01
:10052000859127FE81915F01B70190E00E94B60698
:1005300031103A94F1E04F1A51084114510471F707
:10054000E5C0843611F0893639F5F80127FF07C078
:1005500060817181828193810C5F1F4F08C060812F
:100560007181882777FD8095982F0E5F1F4F2F761A
:10057000B22E97FF09C090958095709561957F4F39
:100580008F4F9F4F2068B22E2AE030E0A4010E94D6
:100590000107A82EA81844C0853729F42F7EB22E53
:1005A0002AE030E025C0F22FF97FBF2E8F36C1F050
:1005B00018F4883579F0B4C0803719F0883721F005
:1005C000AFC02F2F2061B22EB4FE0DC08B2D8460E2
:1005D000B82E09C024FF0AC09F2F9660B92E06C00E
:1005E00028E030E005C020E130E002C020E132E048
:1005F000F801B7FE07C060817181828193810C5F31
:100600001F4F06C06081718180E090E00E5F1F4F38
:10061000A4010E940107A82EA818FB2DFF77BF2E6A
:10062000B6FE0BC02B2D2E7FA51450F4B4FE0AC0CD
:10063000B2FC08C02B2D2E7E05C07A2C2B2D03C0BA
:100640007A2C01C0752C24FF0DC0FE01EA0DF11DAE
:100650008081803311F4297E09C022FF06C0739483
:10066000739404C0822F867809F0739423FD13C01D
:1006700020FF06C05A2C731418F4530C5718732C0F
:10068000731468F4B70180E290E02C870E94B606EC
:1006900073942C85F5CF731410F4371801C0312CE6
:1006A00024FF12C0B70180E390E02C870E94B606B9
:1006B0002C8522FF17C021FF03C088E590E002C00F
:1006C00088E790E0B7010CC0822F867859F021FDB1
:1006D00002C080E201C08BE227FD8DE2B70190E00D
:1006E0000E94B606A51438F4B70180E390E00E949A
:1006F000B6065A94F7CFAA94F401EA0DF11D808151
:10070000B70190E00E94B606A110F5CF332009F49E
:1007100051CEB70180E290E00E94B6063A94F6CF3F
:10072000F7018681978102C08FEF9FEF2C96E2E15F
:100730000C947E0720FD09C0FC0123FD05C022FFAB
:1007400002C07383628351834083089544FD10C0C7
:1007500046FD10C0DB01FC01AA0FBB1FEE1FFF1FEF
:100760001094D1F76A0F7B1F8E1F9F1F31E003C0CB
:1007700033E001C034E0660F771F881F991F3150A6
:10078000D1F7620F711D811D911D08950F931F9365
:10079000CF93DF938C01C8010E947806EC0197FD8E
:1007A00008C00E944F06892BB1F7B801CE010E9404
:1007B000E806CE01DF91CF911F910F9108958F929E
:1007C0009F92AF92CF92DF92EF92FF920F931F937F
:1007D000CF93DF93EC01A62E4A01022F0E947806E8
:1007E000AC0155274B32510521F04D32510551F4E2
:1007F0000068AA9411F480E067C0CE010E947806D8
:1008000097FDF9CF102F1D7F302F307301F5803306
:10081000F1F4FF24FA94FA0C09F442C0CE010E94CC
:10082000780697FD3DC0382F3F7D383551F412646E
:10083000AA94AA94A9F1CE010E94780697FF07C056
:100840002FC006FF02C0126001C01261AF2CC12C84
:10085000D12C760120ED280F283080F014FF04C041
:10086000BE010E94E80619C02A3040F016FFF8CFFA
:100870002F7D3FEE320F363098F72750412FC701BA
:10088000B6010E94A6036B017C011260AA9459F084
:10089000CE010E94780697FFDDCF11FD04C0ABCFDB
:1008A000C12CD12C760117FF08C0F094E094D094AD
:1008B000C094C11CD11CE11CF11C212FB701A60161
:1008C000C4010E949A0381E0DF91CF911F910F91A3
:1008D000FF90EF90DF90CF90AF909F908F90089512
:1008E000A1E2B0E0E6E7F4E00C9467075C017A016E
:1008F0008E010F5F1F4F680180E2D8011D928A951B
:10090000E9F7F501738040E050E0812CB0E0912CD4
:1009100081E090E0F90173FCA59173FEA1918F0134
:100920007A2F9F01A11103C080E090E07DC0AE3519
:1009300019F44115510559F1E92DF0E0E417F507D7
:100940003CF4AD3569F1AD3219F4BB2319F103C0A4
:10095000B11101C08A2EE72FE695E695E69586014E
:100960000E0F111DF801A72FA7708C0102C0000FF8
:10097000111FAA95E2F7D801B081BA2BB083781580
:1009800059F0781510F47F5FE6CF7150E4CF9924C9
:10099000939403C0B1E001C0B0E04F5F5F4FBACFA6
:1009A000BB2319F08E8180628E83911003C099243D
:1009B000939415C0F601CE01819620812095219354
:1009C000E817F907D1F7F3CFE114F10429F0D701C3
:1009D0008C93F70131967F01615001F1912CC50193
:1009E00069A30E94780669A197FD16C0282F269555
:1009F00026952695F601E20FF11D208130E0AC012D
:100A00004770552702C0359527954A95E2F720FD96
:100A1000DBCFB5010E94E806911086CFE114F10406
:100A200011F0D7011C92C801A196EDE00C94830748
:100A30004F925F927F928F929F92AF92BF92CF928E
:100A4000DF92EF92FF920F931F93CF93DF931F924A
:100A5000CDB7DEB78C012B017A01FC01178216821B
:100A6000A12CF801D380F201D3FC8591D3FE8191B2
:100A7000382F2F01882309F4FCC090E039830E94AD
:100A80004F063981892B21F0C8010E94C603E9CFA6
:100A9000353241F4F201D3FC3591D3FE31912F016F
:100AA000353269F4C80139830E947806398197FD8F
:100AB000DEC03817B1F2B8010E94E806DAC03A3257
:100AC00041F4D3FC3591D3FE31912F01BB24B39473
:100AD00001C0B12C712C20ED230F2A3090F4FB2D96
:100AE000F260BF2E672D70E080E090E040E20E944F
:100AF000A603762EF201D3FC3591D3FE31912F015E
:100B0000EACFB1FE03C0711003C0B3C077247A945A
:100B1000383619F03C3661F014C0F201D3FC35913F
:100B2000D3FE31912F01383661F4FB2DF860BF2ED2
:100B30008B2D8460B82EF201D3FC3591D3FE319118
:100B40002F01332309F495C0632F70E088E690E00D
:100B500039830E9457063981892B09F48AC0B0FC79
:100B600007C0F701C080D180C70102967C0102C096
:100B7000C12CD12C3E3651F4F8014681578160E0FA
:100B800070E02B2DC6010E949A036BCF3336A1F47F
:100B9000B1FC02C077247394C8010E94780697FDC7
:100BA00066C0C114D10429F0F6018083C601019604
:100BB0006C017A9489F757C03B3559F49201A6012C
:100BC000672DC8010E9470042C01009709F04BC0EA
:100BD00045C0C80139830E94C603398197FD47C0CB
:100BE0003F3669F128F4343631F1393679F12BC0CA
:100BF000333769F03537F9F026C0C114D10429F034
:100C0000F6018082C60101966C017A9471F0C801E8
:100C10000E9478064C0197FD08C00E944F06892B60
:100C200061F3B801C4010E94E806C114D104D9F0EF
:100C3000F601108218C0FB2DF062BF2E07C08B2D6D
:100C40008061B82E03C09B2D9064B92E2B2DA60178
:100C5000672DC8010E94DF03811105C0F80183815F
:100C6000807329F406C0B0FCFCCEA394FACEAA206F
:100C700019F08A2D90E002C08FEF9FEF0F90DF9167
:100C8000CF911F910F91FF90EF90DF90CF90BF9089
:100C9000AF909F908F907F905F904F9008959111AB
:100CA0000EC1803219F089508550D0F70895FC01AB
:100CB0000590061621F00020D9F7C001089531975C
:100CC000CF010895FC010590615070400110D8F7E4
:100CD000809590958E0F9F1F0895FC016150704084
:100CE00001900110D8F7809590958E0F9F1F089561
:100CF000CF93DF93EC012B8120FF33C026FF0AC086
:100D00002F7B2B838E819F8101969F838E838A8187
:100D100090E029C022FF0FC0E881F98180819927E6
:100D200087FD9095009719F420622B831AC03196A5
:100D3000F983E8830EC0EA85FB85099597FF09C012
:100D40002B81019611F480E101C080E2822B8B831C
:100D500008C02E813F812F5F3F4F3F832E8399270D
:100D600002C08FEF9FEFDF91CF9108950F931F93F4
:100D7000CF93DF93182F092FEB018B8181FD03C0E7
:100D80008FEF9FEF20C082FF10C04E815F812C81CA
:100D90003D81421753077CF4E881F9819F012F5F61
:100DA0003F4F39832883108306C0E885F985812F5A
:100DB0000995892B29F72E813F812F5F3F4F3F8374
:100DC0002E83812F902FDF91CF911F910F91089546
:100DD000FB01238120FF12C026FD10C08F3F3FEF93
:100DE000930761F082832F7D2064238326813781DE
:100DF0002150310937832683992708958FEF9FEF7C
:100E00000895FA01AA27283051F1203181F1E894A0
:100E10006F936E7F6E5F7F4F8F4F9F4FAF4FB1E0ED
:100E20003ED0B4E03CD0670F781F891F9A1FA11DE8
:100E3000680F791F8A1F911DA11D6A0F711D811DE9
:100E4000911DA11D20D009F468943F912AE0269FAE
:100E500011243019305D3193DEF6CF010895462F0D
:100E60004770405D4193B3E00FD0C9F7F6CF462FEE
:100E70004F70405D4A3318F0495D31FD4052419357
:100E800002D0A9F7EACFB4E0A69597958795779514
:100E90006795BA95C9F700976105710508959B019B
:100EA000AC010A2E06945795479537952795BA9524
:100EB000C9F7620F731F841F951FA01D08959927FE
:100EC000882708952F923F924F925F926F927F9260
:100ED0008F929F92AF92BF92CF92DF92EF92FF924A
:100EE0000F931F93CF93DF93CDB7DEB7CA1BDB0BF6
:100EF0000FB6F894DEBF0FBECDBF09942A8839889B
:100F000048885F846E847D848C849B84AA84B984A1
:100F1000C884DF80EE80FD800C811B81AA81B981AD
:100F2000CE0FD11D0FB6F894DEBF0FBECDBFED01C1
:060F30000895F894FFCFC4
:100F3600000000030000000059006B00000074650B
:100F4600737400626F6F746C6F6164000A41505075
:100F56003A20756E6B6E6F776E20636F6D6D616E86
:100F6600640A0D00656E7465726564206170706C4C
:100F760069636174696F6E207370616365002573C0
:060F860000202C3B0000DE
:00000001FF
